{
  "_format": "hh3-artifact-1",
  "contractName": "Vault",
  "sourceName": "contracts/VaultCode.sol",
  "abi": [
    {
      "inputs": [
        {
          "internalType": "address",
          "name": "_token",
          "type": "address"
        }
      ],
      "stateMutability": "nonpayable",
      "type": "constructor"
    },
    {
      "inputs": [
        {
          "internalType": "address",
          "name": "",
          "type": "address"
        }
      ],
      "name": "_balanceOfmembershipToken",
      "outputs": [
        {
          "internalType": "uint256",
          "name": "",
          "type": "uint256"
        }
      ],
      "stateMutability": "view",
      "type": "function"
    },
    {
      "inputs": [
        {
          "internalType": "address",
          "name": "",
          "type": "address"
        }
      ],
      "name": "_membershipTokenOf",
      "outputs": [
        {
          "internalType": "uint256",
          "name": "",
          "type": "uint256"
        }
      ],
      "stateMutability": "view",
      "type": "function"
    },
    {
      "inputs": [
        {
          "internalType": "uint256",
          "name": "",
          "type": "uint256"
        }
      ],
      "name": "_ownerOfmembershipToken",
      "outputs": [
        {
          "internalType": "address",
          "name": "",
          "type": "address"
        }
      ],
      "stateMutability": "view",
      "type": "function"
    },
    {
      "inputs": [],
      "name": "admin",
      "outputs": [
        {
          "internalType": "address",
          "name": "",
          "type": "address"
        }
      ],
      "stateMutability": "view",
      "type": "function"
    },
    {
      "inputs": [
        {
          "internalType": "uint256",
          "name": "_amount",
          "type": "uint256"
        }
      ],
      "name": "appreciateVaultValue",
      "outputs": [],
      "stateMutability": "nonpayable",
      "type": "function"
    },
    {
      "inputs": [
        {
          "internalType": "address",
          "name": "",
          "type": "address"
        }
      ],
      "name": "balanceOf",
      "outputs": [
        {
          "internalType": "uint256",
          "name": "",
          "type": "uint256"
        }
      ],
      "stateMutability": "view",
      "type": "function"
    },
    {
      "inputs": [
        {
          "internalType": "uint256",
          "name": "_amount",
          "type": "uint256"
        }
      ],
      "name": "deposit",
      "outputs": [],
      "stateMutability": "nonpayable",
      "type": "function"
    },
    {
      "inputs": [],
      "name": "feePercent",
      "outputs": [
        {
          "internalType": "uint256",
          "name": "",
          "type": "uint256"
        }
      ],
      "stateMutability": "view",
      "type": "function"
    },
    {
      "inputs": [],
      "name": "token",
      "outputs": [
        {
          "internalType": "contract IERC20",
          "name": "",
          "type": "address"
        }
      ],
      "stateMutability": "view",
      "type": "function"
    },
    {
      "inputs": [],
      "name": "totalSupply",
      "outputs": [
        {
          "internalType": "uint256",
          "name": "",
          "type": "uint256"
        }
      ],
      "stateMutability": "view",
      "type": "function"
    },
    {
      "inputs": [
        {
          "internalType": "uint256",
          "name": "_shares",
          "type": "uint256"
        }
      ],
      "name": "withdraw",
      "outputs": [],
      "stateMutability": "nonpayable",
      "type": "function"
    }
  ],
  "bytecode": "0x60a060405234801561000f575f5ffd5b506040516115d13803806115d183398181016040528101906100319190610111565b8073ffffffffffffffffffffffffffffffffffffffff1660808173ffffffffffffffffffffffffffffffffffffffff16815250503360025f6101000a81548173ffffffffffffffffffffffffffffffffffffffff021916908373ffffffffffffffffffffffffffffffffffffffff16021790555060026003819055505061013c565b5f5ffd5b5f73ffffffffffffffffffffffffffffffffffffffff82169050919050565b5f6100e0826100b7565b9050919050565b6100f0816100d6565b81146100fa575f5ffd5b50565b5f8151905061010b816100e7565b92915050565b5f60208284031215610126576101256100b3565b5b5f610133848285016100fd565b91505092915050565b60805161145361017e5f395f8181610303015281816103e80152818161048401528181610785015281816108bb015281816109770152610a5301526114535ff3fe608060405234801561000f575f5ffd5b50600436106100a7575f3560e01c80638ab92b091161006f5780638ab92b0914610163578063b6b55f251461017f578063ce7ae2ce1461019b578063f851a440146101cb578063fc0c546a146101e9578063fcc54bee14610207576100a7565b806318160ddd146100ab5780632e1a7d4d146100c957806370a08231146100e55780637c831de9146101155780637fd6f15c14610145575b5f5ffd5b6100b3610237565b6040516100c09190610cd9565b60405180910390f35b6100e360048036038101906100de9190610d20565b61023c565b005b6100ff60048036038101906100fa9190610da5565b610681565b60405161010c9190610cd9565b60405180910390f35b61012f600480360381019061012a9190610da5565b610696565b60405161013c9190610cd9565b60405180910390f35b61014d6106ab565b60405161015a9190610cd9565b60405180910390f35b61017d60048036038101906101789190610d20565b6106b1565b005b61019960048036038101906101949190610d20565b610866565b005b6101b560048036038101906101b09190610da5565b610a17565b6040516101c29190610cd9565b60405180910390f35b6101d3610a2c565b6040516101e09190610ddf565b60405180910390f35b6101f1610a51565b6040516101fe9190610e53565b60405180910390f35b610221600480360381019061021c9190610d20565b610a75565b60405161022e9190610ddf565b60405180910390f35b5f5481565b5f810361027e576040517f08c379a000000000000000000000000000000000000000000000000000000000815260040161027590610ec6565b60405180910390fd5b60015f3373ffffffffffffffffffffffffffffffffffffffff1673ffffffffffffffffffffffffffffffffffffffff1681526020019081526020015f20548111156102fe576040517f08c379a00000000000000000000000000000000000000000000000000000000081526004016102f590610f54565b60405180910390fd5b5f5f547f000000000000000000000000000000000000000000000000000000000000000073ffffffffffffffffffffffffffffffffffffffff166370a08231306040518263ffffffff1660e01b815260040161035a9190610ddf565b602060405180830381865afa158015610375573d5f5f3e3d5ffd5b505050506040513d601f19601f820116820180604052508101906103999190610f86565b836103a49190610fde565b6103ae919061104c565b90506103ba3383610aa5565b5f6064600354836103cb9190610fde565b6103d5919061104c565b90505f81836103e4919061107c565b90507f000000000000000000000000000000000000000000000000000000000000000073ffffffffffffffffffffffffffffffffffffffff1663a9059cbb33836040518363ffffffff1660e01b81526004016104419291906110af565b6020604051808303815f875af115801561045d573d5f5f3e3d5ffd5b505050506040513d601f19601f82011682018060405250810190610481919061110b565b507f000000000000000000000000000000000000000000000000000000000000000073ffffffffffffffffffffffffffffffffffffffff1663a9059cbb60025f9054906101000a900473ffffffffffffffffffffffffffffffffffffffff16846040518363ffffffff1660e01b81526004016104fe9291906110af565b6020604051808303815f875af115801561051a573d5f5f3e3d5ffd5b505050506040513d601f19601f8201168201806040525081019061053e919061110b565b505f60015f3373ffffffffffffffffffffffffffffffffffffffff1673ffffffffffffffffffffffffffffffffffffffff1681526020019081526020015f20540361067b575f60075f3373ffffffffffffffffffffffffffffffffffffffff1673ffffffffffffffffffffffffffffffffffffffff1681526020019081526020015f2054905060055f8281526020019081526020015f205f6101000a81549073ffffffffffffffffffffffffffffffffffffffff02191690555f60065f3373ffffffffffffffffffffffffffffffffffffffff1673ffffffffffffffffffffffffffffffffffffffff1681526020019081526020015f208190555060075f3373ffffffffffffffffffffffffffffffffffffffff1673ffffffffffffffffffffffffffffffffffffffff1681526020019081526020015f205f9055505b50505050565b6001602052805f5260405f205f915090505481565b6007602052805f5260405f205f915090505481565b60035481565b60025f9054906101000a900473ffffffffffffffffffffffffffffffffffffffff1673ffffffffffffffffffffffffffffffffffffffff163373ffffffffffffffffffffffffffffffffffffffff1614610740576040517f08c379a0000000000000000000000000000000000000000000000000000000008152600401610737906111a6565b60405180910390fd5b5f8103610782576040517f08c379a000000000000000000000000000000000000000000000000000000000815260040161077990611234565b60405180910390fd5b5f7f000000000000000000000000000000000000000000000000000000000000000073ffffffffffffffffffffffffffffffffffffffff166323b872dd3330856040518463ffffffff1660e01b81526004016107e093929190611252565b6020604051808303815f875af11580156107fc573d5f5f3e3d5ffd5b505050506040513d601f19601f82011682018060405250810190610820919061110b565b905080610862576040517f08c379a0000000000000000000000000000000000000000000000000000000008152600401610859906112f7565b60405180910390fd5b5050565b5f81036108a8576040517f08c379a000000000000000000000000000000000000000000000000000000000815260040161089f90611385565b60405180910390fd5b5f5f5f54036108b95781905061096b565b7f000000000000000000000000000000000000000000000000000000000000000073ffffffffffffffffffffffffffffffffffffffff166370a08231306040518263ffffffff1660e01b81526004016109129190610ddf565b602060405180830381865afa15801561092d573d5f5f3e3d5ffd5b505050506040513d601f19601f820116820180604052508101906109519190610f86565b5f548361095e9190610fde565b610968919061104c565b90505b6109753382610b13565b7f000000000000000000000000000000000000000000000000000000000000000073ffffffffffffffffffffffffffffffffffffffff166323b872dd3330856040518463ffffffff1660e01b81526004016109d293929190611252565b6020604051808303815f875af11580156109ee573d5f5f3e3d5ffd5b505050506040513d601f19601f82011682018060405250810190610a12919061110b565b505050565b6006602052805f5260405f205f915090505481565b60025f9054906101000a900473ffffffffffffffffffffffffffffffffffffffff1681565b7f000000000000000000000000000000000000000000000000000000000000000081565b6005602052805f5260405f205f915054906101000a900473ffffffffffffffffffffffffffffffffffffffff1681565b805f5f828254610ab5919061107c565b925050819055508060015f8473ffffffffffffffffffffffffffffffffffffffff1673ffffffffffffffffffffffffffffffffffffffff1681526020019081526020015f205f828254610b08919061107c565b925050819055505050565b805f5f828254610b2391906113a3565b925050819055508060015f8473ffffffffffffffffffffffffffffffffffffffff1673ffffffffffffffffffffffffffffffffffffffff1681526020019081526020015f205f828254610b7691906113a3565b92505081905550610b8682610b8a565b5050565b5f60075f8373ffffffffffffffffffffffffffffffffffffffff1673ffffffffffffffffffffffffffffffffffffffff1681526020019081526020015f205403610cbe5760045f815480929190610be0906113d6565b91905055508060055f60045481526020019081526020015f205f6101000a81548173ffffffffffffffffffffffffffffffffffffffff021916908373ffffffffffffffffffffffffffffffffffffffff160217905550600160065f8373ffffffffffffffffffffffffffffffffffffffff1673ffffffffffffffffffffffffffffffffffffffff1681526020019081526020015f208190555060045460075f8373ffffffffffffffffffffffffffffffffffffffff1673ffffffffffffffffffffffffffffffffffffffff1681526020019081526020015f20819055505b50565b5f819050919050565b610cd381610cc1565b82525050565b5f602082019050610cec5f830184610cca565b92915050565b5f5ffd5b610cff81610cc1565b8114610d09575f5ffd5b50565b5f81359050610d1a81610cf6565b92915050565b5f60208284031215610d3557610d34610cf2565b5b5f610d4284828501610d0c565b91505092915050565b5f73ffffffffffffffffffffffffffffffffffffffff82169050919050565b5f610d7482610d4b565b9050919050565b610d8481610d6a565b8114610d8e575f5ffd5b50565b5f81359050610d9f81610d7b565b92915050565b5f60208284031215610dba57610db9610cf2565b5b5f610dc784828501610d91565b91505092915050565b610dd981610d6a565b82525050565b5f602082019050610df25f830184610dd0565b92915050565b5f819050919050565b5f610e1b610e16610e1184610d4b565b610df8565b610d4b565b9050919050565b5f610e2c82610e01565b9050919050565b5f610e3d82610e22565b9050919050565b610e4d81610e33565b82525050565b5f602082019050610e665f830184610e44565b92915050565b5f82825260208201905092915050565b7f6572726f723a2063616e6e6f74207769746864726177203020736861726573005f82015250565b5f610eb0601f83610e6c565b9150610ebb82610e7c565b602082019050919050565b5f6020820190508181035f830152610edd81610ea4565b9050919050565b7f6572726f723a20696e73756666696369656e742066756e647320666f722074685f8201527f6973207769746864726177616c00000000000000000000000000000000000000602082015250565b5f610f3e602d83610e6c565b9150610f4982610ee4565b604082019050919050565b5f6020820190508181035f830152610f6b81610f32565b9050919050565b5f81519050610f8081610cf6565b92915050565b5f60208284031215610f9b57610f9a610cf2565b5b5f610fa884828501610f72565b91505092915050565b7f4e487b71000000000000000000000000000000000000000000000000000000005f52601160045260245ffd5b5f610fe882610cc1565b9150610ff383610cc1565b925082820261100181610cc1565b9150828204841483151761101857611017610fb1565b5b5092915050565b7f4e487b71000000000000000000000000000000000000000000000000000000005f52601260045260245ffd5b5f61105682610cc1565b915061106183610cc1565b9250826110715761107061101f565b5b828204905092915050565b5f61108682610cc1565b915061109183610cc1565b92508282039050818111156110a9576110a8610fb1565b5b92915050565b5f6040820190506110c25f830185610dd0565b6110cf6020830184610cca565b9392505050565b5f8115159050919050565b6110ea816110d6565b81146110f4575f5ffd5b50565b5f81519050611105816110e1565b92915050565b5f602082840312156111205761111f610cf2565b5b5f61112d848285016110f7565b91505092915050565b7f6572726f723a206f6e6c79207468652061646d696e2063616e206170707265635f8201527f69617465207661756c742076616c756500000000000000000000000000000000602082015250565b5f611190603083610e6c565b915061119b82611136565b604082019050919050565b5f6020820190508181035f8301526111bd81611184565b9050919050565b7f6572726f723a20617070726563696174696f6e20616d6f756e742068617320745f8201527f6f206265203e2030000000000000000000000000000000000000000000000000602082015250565b5f61121e602883610e6c565b9150611229826111c4565b604082019050919050565b5f6020820190508181035f83015261124b81611212565b9050919050565b5f6060820190506112655f830186610dd0565b6112726020830185610dd0565b61127f6040830184610cca565b949350505050565b7f6572726f723a207661756c7420617070726563696174696f6e207472616e73665f8201527f6572206661696c65640000000000000000000000000000000000000000000000602082015250565b5f6112e1602983610e6c565b91506112ec82611287565b604082019050919050565b5f6020820190508181035f83015261130e816112d5565b9050919050565b7f6572726f723a2063616e6e6f74206465706f736974203020746f6b656e732c205f8201527f6d7573742062652076616c6964206e756d207374617274696e67204020310000602082015250565b5f61136f603e83610e6c565b915061137a82611315565b604082019050919050565b5f6020820190508181035f83015261139c81611363565b9050919050565b5f6113ad82610cc1565b91506113b883610cc1565b92508282019050808211156113d0576113cf610fb1565b5b92915050565b5f6113e082610cc1565b91507fffffffffffffffffffffffffffffffffffffffffffffffffffffffffffffffff820361141257611411610fb1565b5b60018201905091905056fea26469706673582212202691654a3bf2159e83730cba81ec44004fac76256c94a8458a05f9edd5a4806064736f6c634300081c0033",
  "linkReferences": {},
  "deployedLinkReferences": {},
  "immutableReferences": {
    "8273": [
      {
        "length": 32,
        "start": 771
      },
      {
        "length": 32,
        "start": 1000
      },
      {
        "length": 32,
        "start": 1156
      },
      {
        "length": 32,
        "start": 1925
      },
      {
        "length": 32,
        "start": 2235
      },
      {
        "length": 32,
        "start": 2423
      },
      {
        "length": 32,
        "start": 2643
      }
    ]
  },
  "inputSourceName": "project/contracts/VaultCode.sol",
  "buildInfoId": "solc-0_8_28-598b1d2ef6e9a4d5490355b0ad6ccfe8b7e586f8"
}