{
  "_format": "hh3-artifact-1",
  "contractName": "Vault",
  "sourceName": "contracts/VaultCode.sol",
  "abi": [
    {
      "inputs": [
        {
          "internalType": "address",
          "name": "_token",
          "type": "address"
        },
        {
          "internalType": "address",
          "name": "_membershipNFT",
          "type": "address"
        },
        {
          "internalType": "string",
          "name": "_membershipURI",
          "type": "string"
        }
      ],
      "stateMutability": "nonpayable",
      "type": "constructor"
    },
    {
      "inputs": [
        {
          "internalType": "address",
          "name": "",
          "type": "address"
        }
      ],
      "name": "_balanceOfmembershipToken",
      "outputs": [
        {
          "internalType": "uint256",
          "name": "",
          "type": "uint256"
        }
      ],
      "stateMutability": "view",
      "type": "function"
    },
    {
      "inputs": [
        {
          "internalType": "address",
          "name": "",
          "type": "address"
        }
      ],
      "name": "_membershipTokenOf",
      "outputs": [
        {
          "internalType": "uint256",
          "name": "",
          "type": "uint256"
        }
      ],
      "stateMutability": "view",
      "type": "function"
    },
    {
      "inputs": [
        {
          "internalType": "uint256",
          "name": "",
          "type": "uint256"
        }
      ],
      "name": "_ownerOfmembershipToken",
      "outputs": [
        {
          "internalType": "address",
          "name": "",
          "type": "address"
        }
      ],
      "stateMutability": "view",
      "type": "function"
    },
    {
      "inputs": [],
      "name": "admin",
      "outputs": [
        {
          "internalType": "address",
          "name": "",
          "type": "address"
        }
      ],
      "stateMutability": "view",
      "type": "function"
    },
    {
      "inputs": [
        {
          "internalType": "uint256",
          "name": "_amount",
          "type": "uint256"
        }
      ],
      "name": "appreciateVaultValue",
      "outputs": [],
      "stateMutability": "nonpayable",
      "type": "function"
    },
    {
      "inputs": [
        {
          "internalType": "address",
          "name": "",
          "type": "address"
        }
      ],
      "name": "balanceOf",
      "outputs": [
        {
          "internalType": "uint256",
          "name": "",
          "type": "uint256"
        }
      ],
      "stateMutability": "view",
      "type": "function"
    },
    {
      "inputs": [
        {
          "internalType": "uint256",
          "name": "_amount",
          "type": "uint256"
        }
      ],
      "name": "deposit",
      "outputs": [],
      "stateMutability": "nonpayable",
      "type": "function"
    },
    {
      "inputs": [],
      "name": "feePercent",
      "outputs": [
        {
          "internalType": "uint256",
          "name": "",
          "type": "uint256"
        }
      ],
      "stateMutability": "view",
      "type": "function"
    },
    {
      "inputs": [],
      "name": "membershipNFT",
      "outputs": [
        {
          "internalType": "contract CampusVaultNFT",
          "name": "",
          "type": "address"
        }
      ],
      "stateMutability": "view",
      "type": "function"
    },
    {
      "inputs": [],
      "name": "membershipURI",
      "outputs": [
        {
          "internalType": "string",
          "name": "",
          "type": "string"
        }
      ],
      "stateMutability": "view",
      "type": "function"
    },
    {
      "inputs": [],
      "name": "token",
      "outputs": [
        {
          "internalType": "contract IERC20",
          "name": "",
          "type": "address"
        }
      ],
      "stateMutability": "view",
      "type": "function"
    },
    {
      "inputs": [],
      "name": "totalSupply",
      "outputs": [
        {
          "internalType": "uint256",
          "name": "",
          "type": "uint256"
        }
      ],
      "stateMutability": "view",
      "type": "function"
    },
    {
      "inputs": [
        {
          "internalType": "uint256",
          "name": "_shares",
          "type": "uint256"
        }
      ],
      "name": "withdraw",
      "outputs": [],
      "stateMutability": "nonpayable",
      "type": "function"
    }
  ],
  "bytecode": "0x60a060405234801561000f575f5ffd5b5060405161108038038061108083398101604081905261002e916100ad565b6001600160a01b038381166080525f80546001600160a01b031916918416919091179055600161005e8282610202565b5050600480546001600160a01b03191633179055505060026005556102bc565b80516001600160a01b0381168114610094575f5ffd5b919050565b634e487b7160e01b5f52604160045260245ffd5b5f5f5f606084860312156100bf575f5ffd5b6100c88461007e565b92506100d66020850161007e565b60408501519092506001600160401b038111156100f1575f5ffd5b8401601f81018613610101575f5ffd5b80516001600160401b0381111561011a5761011a610099565b604051601f8201601f19908116603f011681016001600160401b038111828210171561014857610148610099565b60405281815282820160200188101561015f575f5ffd5b8160208401602083015e5f602083830101528093505050509250925092565b600181811c9082168061019257607f821691505b6020821081036101b057634e487b7160e01b5f52602260045260245ffd5b50919050565b601f8211156101fd57805f5260205f20601f840160051c810160208510156101db5750805b601f840160051c820191505b818110156101fa575f81556001016101e7565b50505b505050565b81516001600160401b0381111561021b5761021b610099565b61022f81610229845461017e565b846101b6565b6020601f821160018114610261575f831561024a5750848201515b5f19600385901b1c1916600184901b1784556101fa565b5f84815260208120601f198516915b828110156102905787850151825560209485019460019092019101610270565b50848210156102ad57868401515f19600387901b60f8161c191681555b50505050600190811b01905550565b608051610d826102fe5f395f81816101ce01528181610318015281816103e8015281816104870152818161069f0152818161081101526108c80152610d825ff3fe608060405234801561000f575f5ffd5b50600436106100cb575f3560e01c8063985d0b1e11610088578063f851a44011610063578063f851a440146101b6578063fc0c546a146101c9578063fcc54bee146101f0578063fff35f3b14610218575f5ffd5b8063985d0b1e1461015a578063b6b55f2514610184578063ce7ae2ce14610197575f5ffd5b806318160ddd146100cf5780632e1a7d4d146100eb57806370a08231146101005780637c831de91461011f5780637fd6f15c1461013e5780638ab92b0914610147575b5f5ffd5b6100d860025481565b6040519081526020015b60405180910390f35b6100fe6100f9366004610b35565b61022d565b005b6100d861010e366004610b4c565b60036020525f908152604090205481565b6100d861012d366004610b4c565b60096020525f908152604090205481565b6100d860055481565b6100fe610155366004610b35565b6105a8565b5f5461016c906001600160a01b031681565b6040516001600160a01b0390911681526020016100e2565b6100fe610192366004610b35565b610776565b6100d86101a5366004610b4c565b60086020525f908152604090205481565b60045461016c906001600160a01b031681565b61016c7f000000000000000000000000000000000000000000000000000000000000000081565b61016c6101fe366004610b35565b60076020525f90815260409020546001600160a01b031681565b61022061093f565b6040516100e29190610b79565b805f036102815760405162461bcd60e51b815260206004820152601f60248201527f6572726f723a2063616e6e6f742077697468647261772030207368617265730060448201526064015b60405180910390fd5b335f908152600360205260409020548111156102f55760405162461bcd60e51b815260206004820152602d60248201527f6572726f723a20696e73756666696369656e742066756e647320666f7220746860448201526c1a5cc81dda5d1a191c985dd85b609a1b6064820152608401610278565b6002546040516370a0823160e01b81523060048201525f91906001600160a01b037f000000000000000000000000000000000000000000000000000000000000000016906370a0823190602401602060405180830381865afa15801561035d573d5f5f3e3d5ffd5b505050506040513d601f19601f820116820180604052508101906103819190610bae565b61038b9084610bd9565b6103959190610bf6565b90506103a133836109cb565b5f6064600554836103b29190610bd9565b6103bc9190610bf6565b90505f6103c98284610c15565b60405163a9059cbb60e01b8152336004820152602481018290529091507f00000000000000000000000000000000000000000000000000000000000000006001600160a01b03169063a9059cbb906044016020604051808303815f875af1158015610436573d5f5f3e3d5ffd5b505050506040513d601f19601f8201168201806040525081019061045a9190610c28565b506004805460405163a9059cbb60e01b81526001600160a01b0391821692810192909252602482018490527f0000000000000000000000000000000000000000000000000000000000000000169063a9059cbb906044016020604051808303815f875af11580156104cd573d5f5f3e3d5ffd5b505050506040513d601f19601f820116820180604052508101906104f19190610c28565b50335f9081526003602052604081205490036105a257335f908152600960205260408082205491549051636aba1fff60e11b8152600481018390526001600160a01b039091169063d5743ffe906024015f604051808303815f87803b158015610558575f5ffd5b505af115801561056a573d5f5f3e3d5ffd5b5050505f9182525060076020908152604080832080546001600160a01b03191690553383526008825280832083905560099091528120555b50505050565b6004546001600160a01b0316331461061b5760405162461bcd60e51b815260206004820152603060248201527f6572726f723a206f6e6c79207468652061646d696e2063616e2061707072656360448201526f69617465207661756c742076616c756560801b6064820152608401610278565b805f0361067b5760405162461bcd60e51b815260206004820152602860248201527f6572726f723a20617070726563696174696f6e20616d6f756e7420686173207460448201526706f206265203e20360c41b6064820152608401610278565b6040516323b872dd60e01b8152336004820152306024820152604481018290525f907f00000000000000000000000000000000000000000000000000000000000000006001600160a01b0316906323b872dd906064016020604051808303815f875af11580156106ed573d5f5f3e3d5ffd5b505050506040513d601f19601f820116820180604052508101906107119190610c28565b9050806107725760405162461bcd60e51b815260206004820152602960248201527f6572726f723a207661756c7420617070726563696174696f6e207472616e7366604482015268195c8819985a5b195960ba1b6064820152608401610278565b5050565b805f036107eb5760405162461bcd60e51b815260206004820152603e60248201527f6572726f723a2063616e6e6f74206465706f736974203020746f6b656e732c2060448201527f6d7573742062652076616c6964206e756d207374617274696e672040203100006064820152608401610278565b5f6002545f036107fc57508061089c565b6040516370a0823160e01b81523060048201527f00000000000000000000000000000000000000000000000000000000000000006001600160a01b0316906370a0823190602401602060405180830381865afa15801561085e573d5f5f3e3d5ffd5b505050506040513d601f19601f820116820180604052508101906108829190610bae565b60025461088f9084610bd9565b6108999190610bf6565b90505b6108a63382610a11565b6040516323b872dd60e01b8152336004820152306024820152604481018390527f00000000000000000000000000000000000000000000000000000000000000006001600160a01b0316906323b872dd906064016020604051808303815f875af1158015610916573d5f5f3e3d5ffd5b505050506040513d601f19601f8201168201806040525081019061093a9190610c28565b505050565b6001805461094c90610c47565b80601f016020809104026020016040519081016040528092919081815260200182805461097890610c47565b80156109c35780601f1061099a576101008083540402835291602001916109c3565b820191905f5260205f20905b8154815290600101906020018083116109a657829003601f168201915b505050505081565b8060025f8282546109dc9190610c15565b90915550506001600160a01b0382165f9081526003602052604081208054839290610a08908490610c15565b90915550505050565b8060025f828254610a229190610c7f565b90915550506001600160a01b0382165f9081526003602052604081208054839290610a4e908490610c7f565b909155506107729050826001600160a01b0381165f9081526009602052604090205415610a785750565b5f805460405163d0def52160e01b81526001600160a01b039091169063d0def52190610aab908590600190600401610c92565b6020604051808303815f875af1158015610ac7573d5f5f3e3d5ffd5b505050506040513d601f19601f82011682018060405250810190610aeb9190610bae565b5f81815260076020908152604080832080546001600160a01b039097166001600160a01b031990971687179055948252600881528482206001905560099052929092209190915550565b5f60208284031215610b45575f5ffd5b5035919050565b5f60208284031215610b5c575f5ffd5b81356001600160a01b0381168114610b72575f5ffd5b9392505050565b602081525f82518060208401528060208501604085015e5f604082850101526040601f19601f83011684010191505092915050565b5f60208284031215610bbe575f5ffd5b5051919050565b634e487b7160e01b5f52601160045260245ffd5b8082028115828204841417610bf057610bf0610bc5565b92915050565b5f82610c1057634e487b7160e01b5f52601260045260245ffd5b500490565b81810381811115610bf057610bf0610bc5565b5f60208284031215610c38575f5ffd5b81518015158114610b72575f5ffd5b600181811c90821680610c5b57607f821691505b602082108103610c7957634e487b7160e01b5f52602260045260245ffd5b50919050565b80820180821115610bf057610bf0610bc5565b6001600160a01b03831681526040602082015281545f908190600181811c90821680610cbf57607f821691505b602082108103610cdd57634e487b7160e01b5f52602260045260245ffd5b6040860182905260608601818015610cfc5760018114610d1257610d3e565b60ff198516825283151560051b82019550610d3e565b5f898152602090205f5b85811015610d3857815484820152600190910190602001610d1c565b83019650505b50939897505050505050505056fea2646970667358221220694fc9499dcff902d376d0fcab95337ced9af9552560393305158354a9798f2964736f6c634300081c0033",
  "linkReferences": {},
  "deployedLinkReferences": {},
  "immutableReferences": {
    "4": [
      {
        "length": 32,
        "start": 462
      },
      {
        "length": 32,
        "start": 792
      },
      {
        "length": 32,
        "start": 1000
      },
      {
        "length": 32,
        "start": 1159
      },
      {
        "length": 32,
        "start": 1695
      },
      {
        "length": 32,
        "start": 2065
      },
      {
        "length": 32,
        "start": 2248
      }
    ]
  },
  "inputSourceName": "project/contracts/VaultCode.sol",
  "buildInfoId": "solc-0_8_28-3f4122056a36767bfc1fe1236a503fe88a2c575c"
}