{
  "_format": "hh3-artifact-1",
  "contractName": "Vault",
  "sourceName": "contracts/VaultCode.sol",
  "abi": [
    {
      "inputs": [
        {
          "internalType": "address",
          "name": "_token",
          "type": "address"
        }
      ],
      "stateMutability": "nonpayable",
      "type": "constructor"
    },
    {
      "inputs": [
        {
          "internalType": "address",
          "name": "",
          "type": "address"
        }
      ],
      "name": "_balanceOfmembershipToken",
      "outputs": [
        {
          "internalType": "uint256",
          "name": "",
          "type": "uint256"
        }
      ],
      "stateMutability": "view",
      "type": "function"
    },
    {
      "inputs": [
        {
          "internalType": "address",
          "name": "",
          "type": "address"
        }
      ],
      "name": "_membershipTokenOf",
      "outputs": [
        {
          "internalType": "uint256",
          "name": "",
          "type": "uint256"
        }
      ],
      "stateMutability": "view",
      "type": "function"
    },
    {
      "inputs": [
        {
          "internalType": "uint256",
          "name": "",
          "type": "uint256"
        }
      ],
      "name": "_ownerOfmembershipToken",
      "outputs": [
        {
          "internalType": "address",
          "name": "",
          "type": "address"
        }
      ],
      "stateMutability": "view",
      "type": "function"
    },
    {
      "inputs": [],
      "name": "admin",
      "outputs": [
        {
          "internalType": "address",
          "name": "",
          "type": "address"
        }
      ],
      "stateMutability": "view",
      "type": "function"
    },
    {
      "inputs": [
        {
          "internalType": "address",
          "name": "",
          "type": "address"
        }
      ],
      "name": "balanceOf",
      "outputs": [
        {
          "internalType": "uint256",
          "name": "",
          "type": "uint256"
        }
      ],
      "stateMutability": "view",
      "type": "function"
    },
    {
      "inputs": [
        {
          "internalType": "uint256",
          "name": "_amount",
          "type": "uint256"
        }
      ],
      "name": "deposit",
      "outputs": [],
      "stateMutability": "nonpayable",
      "type": "function"
    },
    {
      "inputs": [],
      "name": "feePercent",
      "outputs": [
        {
          "internalType": "uint256",
          "name": "",
          "type": "uint256"
        }
      ],
      "stateMutability": "view",
      "type": "function"
    },
    {
      "inputs": [],
      "name": "token",
      "outputs": [
        {
          "internalType": "contract IERC20",
          "name": "",
          "type": "address"
        }
      ],
      "stateMutability": "view",
      "type": "function"
    },
    {
      "inputs": [],
      "name": "totalSupply",
      "outputs": [
        {
          "internalType": "uint256",
          "name": "",
          "type": "uint256"
        }
      ],
      "stateMutability": "view",
      "type": "function"
    },
    {
      "inputs": [
        {
          "internalType": "uint256",
          "name": "_shares",
          "type": "uint256"
        }
      ],
      "name": "withdraw",
      "outputs": [],
      "stateMutability": "nonpayable",
      "type": "function"
    }
  ],
  "bytecode": "0x60a060405234801561000f575f5ffd5b506040516109ae3803806109ae83398101604081905261002e91610054565b6001600160a01b0316608052600280546001600160a01b03191633178155600355610081565b5f60208284031215610064575f5ffd5b81516001600160a01b038116811461007a575f5ffd5b9392505050565b6080516108f26100bc5f395f8181610178015281816102a20152818161037a0152818161041601528181610572015261062801526108f25ff3fe608060405234801561000f575f5ffd5b506004361061009b575f3560e01c8063b6b55f2511610063578063b6b55f2514610116578063ce7ae2ce14610129578063f851a44014610148578063fc0c546a14610173578063fcc54bee1461019a575f5ffd5b806318160ddd1461009f5780632e1a7d4d146100ba57806370a08231146100cf5780637c831de9146100ee5780637fd6f15c1461010d575b5f5ffd5b6100a75f5481565b6040519081526020015b60405180910390f35b6100cd6100c83660046107b4565b6101c2565b005b6100a76100dd3660046107cb565b60016020525f908152604090205481565b6100a76100fc3660046107cb565b60076020525f908152604090205481565b6100a760035481565b6100cd6101243660046107b4565b6104d8565b6100a76101373660046107cb565b60066020525f908152604090205481565b60025461015b906001600160a01b031681565b6040516001600160a01b0390911681526020016100b1565b61015b7f000000000000000000000000000000000000000000000000000000000000000081565b61015b6101a83660046107b4565b60056020525f90815260409020546001600160a01b031681565b805f036102165760405162461bcd60e51b815260206004820152601f60248201527f6572726f723a2063616e6e6f742077697468647261772030207368617265730060448201526064015b60405180910390fd5b335f9081526001602052604090205481111561028a5760405162461bcd60e51b815260206004820152602d60248201527f6572726f723a20696e73756666696369656e742066756e647320666f7220746860448201526c1a5cc81dda5d1a191c985dd85b609a1b606482015260840161020d565b5f80546040516370a0823160e01b81523060048201527f00000000000000000000000000000000000000000000000000000000000000006001600160a01b0316906370a0823190602401602060405180830381865afa1580156102ef573d5f5f3e3d5ffd5b505050506040513d601f19601f8201168201806040525081019061031391906107f8565b61031d9084610823565b6103279190610840565b9050610333338361069f565b5f6064600354836103449190610823565b61034e9190610840565b90505f61035b828461085f565b60405163a9059cbb60e01b8152336004820152602481018290529091507f00000000000000000000000000000000000000000000000000000000000000006001600160a01b03169063a9059cbb906044016020604051808303815f875af11580156103c8573d5f5f3e3d5ffd5b505050506040513d601f19601f820116820180604052508101906103ec9190610872565b5060025460405163a9059cbb60e01b81526001600160a01b039182166004820152602481018490527f00000000000000000000000000000000000000000000000000000000000000009091169063a9059cbb906044016020604051808303815f875af115801561045e573d5f5f3e3d5ffd5b505050506040513d601f19601f820116820180604052508101906104829190610872565b50335f9081526001602052604081205490036104d257335f818152600760208181526040808420805485526005835281852080546001600160a01b03191690559484526006825283208390555290555b50505050565b805f0361054d5760405162461bcd60e51b815260206004820152603e60248201527f6572726f723a2063616e6e6f74206465706f736974203020746f6b656e732c2060448201527f6d7573742062652076616c6964206e756d207374617274696e67204020310000606482015260840161020d565b5f5f545f0361055d5750806105fc565b6040516370a0823160e01b81523060048201527f00000000000000000000000000000000000000000000000000000000000000006001600160a01b0316906370a0823190602401602060405180830381865afa1580156105bf573d5f5f3e3d5ffd5b505050506040513d601f19601f820116820180604052508101906105e391906107f8565b5f546105ef9084610823565b6105f99190610840565b90505b61060633826106e4565b6040516323b872dd60e01b8152336004820152306024820152604481018390527f00000000000000000000000000000000000000000000000000000000000000006001600160a01b0316906323b872dd906064016020604051808303815f875af1158015610676573d5f5f3e3d5ffd5b505050506040513d601f19601f8201168201806040525081019061069a9190610872565b505050565b805f5f8282546106af919061085f565b90915550506001600160a01b0382165f90815260016020526040812080548392906106db90849061085f565b90915550505050565b805f5f8282546106f49190610891565b90915550506001600160a01b0382165f9081526001602052604081208054839290610720908490610891565b9091555061072f905082610733565b5050565b6001600160a01b0381165f90815260076020526040902054156107535750565b60048054905f610762836108a4565b9091555050600480545f90815260056020908152604080832080546001600160a01b039096166001600160a01b0319909616861790559382526006815283822060019055915460079092529190912055565b5f602082840312156107c4575f5ffd5b5035919050565b5f602082840312156107db575f5ffd5b81356001600160a01b03811681146107f1575f5ffd5b9392505050565b5f60208284031215610808575f5ffd5b5051919050565b634e487b7160e01b5f52601160045260245ffd5b808202811582820484141761083a5761083a61080f565b92915050565b5f8261085a57634e487b7160e01b5f52601260045260245ffd5b500490565b8181038181111561083a5761083a61080f565b5f60208284031215610882575f5ffd5b815180151581146107f1575f5ffd5b8082018082111561083a5761083a61080f565b5f600182016108b5576108b561080f565b506001019056fea2646970667358221220e0a6a777065518c988581b060df5497cdd860c6ef02c24bd521a77998e31f87c64736f6c634300081c0033",
  "linkReferences": {},
  "deployedLinkReferences": {},
  "immutableReferences": {
    "4": [
      {
        "length": 32,
        "start": 376
      },
      {
        "length": 32,
        "start": 674
      },
      {
        "length": 32,
        "start": 890
      },
      {
        "length": 32,
        "start": 1046
      },
      {
        "length": 32,
        "start": 1394
      },
      {
        "length": 32,
        "start": 1576
      }
    ]
  },
  "inputSourceName": "project/contracts/VaultCode.sol",
  "buildInfoId": "solc-0_8_28-b918dc1811557d31685e18862adc177319074968"
}