{
  "_format": "hh3-artifact-1",
  "contractName": "Vault",
  "sourceName": "contracts/VaultCode.sol",
  "abi": [
    {
      "inputs": [
        {
          "internalType": "address",
          "name": "_token",
          "type": "address"
        }
      ],
      "stateMutability": "nonpayable",
      "type": "constructor"
    },
    {
      "inputs": [
        {
          "internalType": "address",
          "name": "",
          "type": "address"
        }
      ],
      "name": "_balanceOfmembershipToken",
      "outputs": [
        {
          "internalType": "uint256",
          "name": "",
          "type": "uint256"
        }
      ],
      "stateMutability": "view",
      "type": "function"
    },
    {
      "inputs": [
        {
          "internalType": "address",
          "name": "",
          "type": "address"
        }
      ],
      "name": "_membershipTokenOf",
      "outputs": [
        {
          "internalType": "uint256",
          "name": "",
          "type": "uint256"
        }
      ],
      "stateMutability": "view",
      "type": "function"
    },
    {
      "inputs": [
        {
          "internalType": "uint256",
          "name": "",
          "type": "uint256"
        }
      ],
      "name": "_ownerOfmembershipToken",
      "outputs": [
        {
          "internalType": "address",
          "name": "",
          "type": "address"
        }
      ],
      "stateMutability": "view",
      "type": "function"
    },
    {
      "inputs": [],
      "name": "admin",
      "outputs": [
        {
          "internalType": "address",
          "name": "",
          "type": "address"
        }
      ],
      "stateMutability": "view",
      "type": "function"
    },
    {
      "inputs": [
        {
          "internalType": "uint256",
          "name": "_amount",
          "type": "uint256"
        }
      ],
      "name": "appreciateVaultValue",
      "outputs": [],
      "stateMutability": "nonpayable",
      "type": "function"
    },
    {
      "inputs": [
        {
          "internalType": "address",
          "name": "",
          "type": "address"
        }
      ],
      "name": "balanceOf",
      "outputs": [
        {
          "internalType": "uint256",
          "name": "",
          "type": "uint256"
        }
      ],
      "stateMutability": "view",
      "type": "function"
    },
    {
      "inputs": [
        {
          "internalType": "uint256",
          "name": "_amount",
          "type": "uint256"
        }
      ],
      "name": "deposit",
      "outputs": [],
      "stateMutability": "nonpayable",
      "type": "function"
    },
    {
      "inputs": [],
      "name": "feePercent",
      "outputs": [
        {
          "internalType": "uint256",
          "name": "",
          "type": "uint256"
        }
      ],
      "stateMutability": "view",
      "type": "function"
    },
    {
      "inputs": [],
      "name": "token",
      "outputs": [
        {
          "internalType": "contract IERC20",
          "name": "",
          "type": "address"
        }
      ],
      "stateMutability": "view",
      "type": "function"
    },
    {
      "inputs": [],
      "name": "totalSupply",
      "outputs": [
        {
          "internalType": "uint256",
          "name": "",
          "type": "uint256"
        }
      ],
      "stateMutability": "view",
      "type": "function"
    },
    {
      "inputs": [
        {
          "internalType": "uint256",
          "name": "_shares",
          "type": "uint256"
        }
      ],
      "name": "withdraw",
      "outputs": [],
      "stateMutability": "nonpayable",
      "type": "function"
    }
  ],
  "bytecode": "0x60a060405234801561000f575f5ffd5b50604051610b98380380610b9883398101604081905261002e91610054565b6001600160a01b0316608052600280546001600160a01b03191633178155600355610081565b5f60208284031215610064575f5ffd5b81516001600160a01b038116811461007a575f5ffd5b9392505050565b608051610ad56100c35f395f8181610196015281816102c00152818161039801528181610434015281816105ed0152818161075e01526108140152610ad55ff3fe608060405234801561000f575f5ffd5b50600436106100a6575f3560e01c80638ab92b091161006e5780638ab92b0914610121578063b6b55f2514610134578063ce7ae2ce14610147578063f851a44014610166578063fc0c546a14610191578063fcc54bee146101b8575f5ffd5b806318160ddd146100aa5780632e1a7d4d146100c557806370a08231146100da5780637c831de9146100f95780637fd6f15c14610118575b5f5ffd5b6100b25f5481565b6040519081526020015b60405180910390f35b6100d86100d3366004610997565b6101e0565b005b6100b26100e83660046109ae565b60016020525f908152604090205481565b6100b26101073660046109ae565b60076020525f908152604090205481565b6100b260035481565b6100d861012f366004610997565b6104f6565b6100d8610142366004610997565b6106c4565b6100b26101553660046109ae565b60066020525f908152604090205481565b600254610179906001600160a01b031681565b6040516001600160a01b0390911681526020016100bc565b6101797f000000000000000000000000000000000000000000000000000000000000000081565b6101796101c6366004610997565b60056020525f90815260409020546001600160a01b031681565b805f036102345760405162461bcd60e51b815260206004820152601f60248201527f6572726f723a2063616e6e6f742077697468647261772030207368617265730060448201526064015b60405180910390fd5b335f908152600160205260409020548111156102a85760405162461bcd60e51b815260206004820152602d60248201527f6572726f723a20696e73756666696369656e742066756e647320666f7220746860448201526c1a5cc81dda5d1a191c985dd85b609a1b606482015260840161022b565b5f80546040516370a0823160e01b81523060048201527f00000000000000000000000000000000000000000000000000000000000000006001600160a01b0316906370a0823190602401602060405180830381865afa15801561030d573d5f5f3e3d5ffd5b505050506040513d601f19601f8201168201806040525081019061033191906109db565b61033b9084610a06565b6103459190610a23565b9050610351338361088b565b5f6064600354836103629190610a06565b61036c9190610a23565b90505f6103798284610a42565b60405163a9059cbb60e01b8152336004820152602481018290529091507f00000000000000000000000000000000000000000000000000000000000000006001600160a01b03169063a9059cbb906044016020604051808303815f875af11580156103e6573d5f5f3e3d5ffd5b505050506040513d601f19601f8201168201806040525081019061040a9190610a55565b5060025460405163a9059cbb60e01b81526001600160a01b039182166004820152602481018490527f00000000000000000000000000000000000000000000000000000000000000009091169063a9059cbb906044016020604051808303815f875af115801561047c573d5f5f3e3d5ffd5b505050506040513d601f19601f820116820180604052508101906104a09190610a55565b50335f9081526001602052604081205490036104f057335f818152600760208181526040808420805485526005835281852080546001600160a01b03191690559484526006825283208390555290555b50505050565b6002546001600160a01b031633146105695760405162461bcd60e51b815260206004820152603060248201527f6572726f723a206f6e6c79207468652061646d696e2063616e2061707072656360448201526f69617465207661756c742076616c756560801b606482015260840161022b565b805f036105c95760405162461bcd60e51b815260206004820152602860248201527f6572726f723a20617070726563696174696f6e20616d6f756e7420686173207460448201526706f206265203e20360c41b606482015260840161022b565b6040516323b872dd60e01b8152336004820152306024820152604481018290525f907f00000000000000000000000000000000000000000000000000000000000000006001600160a01b0316906323b872dd906064016020604051808303815f875af115801561063b573d5f5f3e3d5ffd5b505050506040513d601f19601f8201168201806040525081019061065f9190610a55565b9050806106c05760405162461bcd60e51b815260206004820152602960248201527f6572726f723a207661756c7420617070726563696174696f6e207472616e7366604482015268195c8819985a5b195960ba1b606482015260840161022b565b5050565b805f036107395760405162461bcd60e51b815260206004820152603e60248201527f6572726f723a2063616e6e6f74206465706f736974203020746f6b656e732c2060448201527f6d7573742062652076616c6964206e756d207374617274696e67204020310000606482015260840161022b565b5f5f545f036107495750806107e8565b6040516370a0823160e01b81523060048201527f00000000000000000000000000000000000000000000000000000000000000006001600160a01b0316906370a0823190602401602060405180830381865afa1580156107ab573d5f5f3e3d5ffd5b505050506040513d601f19601f820116820180604052508101906107cf91906109db565b5f546107db9084610a06565b6107e59190610a23565b90505b6107f233826108d0565b6040516323b872dd60e01b8152336004820152306024820152604481018390527f00000000000000000000000000000000000000000000000000000000000000006001600160a01b0316906323b872dd906064016020604051808303815f875af1158015610862573d5f5f3e3d5ffd5b505050506040513d601f19601f820116820180604052508101906108869190610a55565b505050565b805f5f82825461089b9190610a42565b90915550506001600160a01b0382165f90815260016020526040812080548392906108c7908490610a42565b90915550505050565b805f5f8282546108e09190610a74565b90915550506001600160a01b0382165f908152600160205260408120805483929061090c908490610a74565b909155506106c09050826001600160a01b0381165f90815260076020526040902054156109365750565b60048054905f61094583610a87565b9091555050600480545f90815260056020908152604080832080546001600160a01b039096166001600160a01b0319909616861790559382526006815283822060019055915460079092529190912055565b5f602082840312156109a7575f5ffd5b5035919050565b5f602082840312156109be575f5ffd5b81356001600160a01b03811681146109d4575f5ffd5b9392505050565b5f602082840312156109eb575f5ffd5b5051919050565b634e487b7160e01b5f52601160045260245ffd5b8082028115828204841417610a1d57610a1d6109f2565b92915050565b5f82610a3d57634e487b7160e01b5f52601260045260245ffd5b500490565b81810381811115610a1d57610a1d6109f2565b5f60208284031215610a65575f5ffd5b815180151581146109d4575f5ffd5b80820180821115610a1d57610a1d6109f2565b5f60018201610a9857610a986109f2565b506001019056fea2646970667358221220b011ea200d5509c10e2ce50388a8ef3fecca64e96401b9067e600d8808adac2264736f6c634300081c0033",
  "linkReferences": {},
  "deployedLinkReferences": {},
  "immutableReferences": {
    "4": [
      {
        "length": 32,
        "start": 406
      },
      {
        "length": 32,
        "start": 704
      },
      {
        "length": 32,
        "start": 920
      },
      {
        "length": 32,
        "start": 1076
      },
      {
        "length": 32,
        "start": 1517
      },
      {
        "length": 32,
        "start": 1886
      },
      {
        "length": 32,
        "start": 2068
      }
    ]
  },
  "inputSourceName": "project/contracts/VaultCode.sol",
  "buildInfoId": "solc-0_8_28-e3ff2593d205e86a56b680af4de517b6b0f40312"
}