{
  "_format": "hh3-artifact-1",
  "contractName": "CampusVaultNFT",
  "sourceName": "contracts/CVM_NFT.sol",
  "abi": [
    {
      "inputs": [],
      "stateMutability": "nonpayable",
      "type": "constructor"
    },
    {
      "inputs": [
        {
          "internalType": "address",
          "name": "sender",
          "type": "address"
        },
        {
          "internalType": "uint256",
          "name": "tokenId",
          "type": "uint256"
        },
        {
          "internalType": "address",
          "name": "owner",
          "type": "address"
        }
      ],
      "name": "ERC721IncorrectOwner",
      "type": "error"
    },
    {
      "inputs": [
        {
          "internalType": "address",
          "name": "operator",
          "type": "address"
        },
        {
          "internalType": "uint256",
          "name": "tokenId",
          "type": "uint256"
        }
      ],
      "name": "ERC721InsufficientApproval",
      "type": "error"
    },
    {
      "inputs": [
        {
          "internalType": "address",
          "name": "approver",
          "type": "address"
        }
      ],
      "name": "ERC721InvalidApprover",
      "type": "error"
    },
    {
      "inputs": [
        {
          "internalType": "address",
          "name": "operator",
          "type": "address"
        }
      ],
      "name": "ERC721InvalidOperator",
      "type": "error"
    },
    {
      "inputs": [
        {
          "internalType": "address",
          "name": "owner",
          "type": "address"
        }
      ],
      "name": "ERC721InvalidOwner",
      "type": "error"
    },
    {
      "inputs": [
        {
          "internalType": "address",
          "name": "receiver",
          "type": "address"
        }
      ],
      "name": "ERC721InvalidReceiver",
      "type": "error"
    },
    {
      "inputs": [
        {
          "internalType": "address",
          "name": "sender",
          "type": "address"
        }
      ],
      "name": "ERC721InvalidSender",
      "type": "error"
    },
    {
      "inputs": [
        {
          "internalType": "uint256",
          "name": "tokenId",
          "type": "uint256"
        }
      ],
      "name": "ERC721NonexistentToken",
      "type": "error"
    },
    {
      "inputs": [
        {
          "internalType": "address",
          "name": "owner",
          "type": "address"
        }
      ],
      "name": "OwnableInvalidOwner",
      "type": "error"
    },
    {
      "inputs": [
        {
          "internalType": "address",
          "name": "account",
          "type": "address"
        }
      ],
      "name": "OwnableUnauthorizedAccount",
      "type": "error"
    },
    {
      "anonymous": false,
      "inputs": [
        {
          "indexed": true,
          "internalType": "address",
          "name": "owner",
          "type": "address"
        },
        {
          "indexed": true,
          "internalType": "address",
          "name": "approved",
          "type": "address"
        },
        {
          "indexed": true,
          "internalType": "uint256",
          "name": "tokenId",
          "type": "uint256"
        }
      ],
      "name": "Approval",
      "type": "event"
    },
    {
      "anonymous": false,
      "inputs": [
        {
          "indexed": true,
          "internalType": "address",
          "name": "owner",
          "type": "address"
        },
        {
          "indexed": true,
          "internalType": "address",
          "name": "operator",
          "type": "address"
        },
        {
          "indexed": false,
          "internalType": "bool",
          "name": "approved",
          "type": "bool"
        }
      ],
      "name": "ApprovalForAll",
      "type": "event"
    },
    {
      "anonymous": false,
      "inputs": [
        {
          "indexed": true,
          "internalType": "address",
          "name": "owner",
          "type": "address"
        },
        {
          "indexed": true,
          "internalType": "uint256",
          "name": "tokenId",
          "type": "uint256"
        },
        {
          "indexed": false,
          "internalType": "string",
          "name": "initialDataURI",
          "type": "string"
        }
      ],
      "name": "NFTMinted",
      "type": "event"
    },
    {
      "anonymous": false,
      "inputs": [
        {
          "indexed": true,
          "internalType": "address",
          "name": "previousOwner",
          "type": "address"
        },
        {
          "indexed": true,
          "internalType": "address",
          "name": "newOwner",
          "type": "address"
        }
      ],
      "name": "OwnershipTransferred",
      "type": "event"
    },
    {
      "anonymous": false,
      "inputs": [
        {
          "indexed": true,
          "internalType": "address",
          "name": "from",
          "type": "address"
        },
        {
          "indexed": true,
          "internalType": "address",
          "name": "to",
          "type": "address"
        },
        {
          "indexed": true,
          "internalType": "uint256",
          "name": "tokenId",
          "type": "uint256"
        }
      ],
      "name": "Transfer",
      "type": "event"
    },
    {
      "inputs": [
        {
          "internalType": "address",
          "name": "to",
          "type": "address"
        },
        {
          "internalType": "uint256",
          "name": "tokenId",
          "type": "uint256"
        }
      ],
      "name": "approve",
      "outputs": [],
      "stateMutability": "nonpayable",
      "type": "function"
    },
    {
      "inputs": [
        {
          "internalType": "address",
          "name": "owner",
          "type": "address"
        }
      ],
      "name": "balanceOf",
      "outputs": [
        {
          "internalType": "uint256",
          "name": "",
          "type": "uint256"
        }
      ],
      "stateMutability": "view",
      "type": "function"
    },
    {
      "inputs": [
        {
          "internalType": "uint256",
          "name": "tokenId",
          "type": "uint256"
        }
      ],
      "name": "getApproved",
      "outputs": [
        {
          "internalType": "address",
          "name": "",
          "type": "address"
        }
      ],
      "stateMutability": "view",
      "type": "function"
    },
    {
      "inputs": [
        {
          "internalType": "address",
          "name": "owner",
          "type": "address"
        },
        {
          "internalType": "address",
          "name": "operator",
          "type": "address"
        }
      ],
      "name": "isApprovedForAll",
      "outputs": [
        {
          "internalType": "bool",
          "name": "",
          "type": "bool"
        }
      ],
      "stateMutability": "view",
      "type": "function"
    },
    {
      "inputs": [
        {
          "internalType": "address",
          "name": "recipient",
          "type": "address"
        },
        {
          "internalType": "string",
          "name": "metadataURI",
          "type": "string"
        }
      ],
      "name": "mint",
      "outputs": [
        {
          "internalType": "uint256",
          "name": "",
          "type": "uint256"
        }
      ],
      "stateMutability": "nonpayable",
      "type": "function"
    },
    {
      "inputs": [],
      "name": "name",
      "outputs": [
        {
          "internalType": "string",
          "name": "",
          "type": "string"
        }
      ],
      "stateMutability": "view",
      "type": "function"
    },
    {
      "inputs": [],
      "name": "owner",
      "outputs": [
        {
          "internalType": "address",
          "name": "",
          "type": "address"
        }
      ],
      "stateMutability": "view",
      "type": "function"
    },
    {
      "inputs": [
        {
          "internalType": "uint256",
          "name": "tokenId",
          "type": "uint256"
        }
      ],
      "name": "ownerOf",
      "outputs": [
        {
          "internalType": "address",
          "name": "",
          "type": "address"
        }
      ],
      "stateMutability": "view",
      "type": "function"
    },
    {
      "inputs": [],
      "name": "renounceOwnership",
      "outputs": [],
      "stateMutability": "nonpayable",
      "type": "function"
    },
    {
      "inputs": [
        {
          "internalType": "uint256",
          "name": "tokenId",
          "type": "uint256"
        }
      ],
      "name": "revoke_NFT",
      "outputs": [],
      "stateMutability": "nonpayable",
      "type": "function"
    },
    {
      "inputs": [
        {
          "internalType": "address",
          "name": "from",
          "type": "address"
        },
        {
          "internalType": "address",
          "name": "to",
          "type": "address"
        },
        {
          "internalType": "uint256",
          "name": "tokenId",
          "type": "uint256"
        }
      ],
      "name": "safeTransferFrom",
      "outputs": [],
      "stateMutability": "nonpayable",
      "type": "function"
    },
    {
      "inputs": [
        {
          "internalType": "address",
          "name": "from",
          "type": "address"
        },
        {
          "internalType": "address",
          "name": "to",
          "type": "address"
        },
        {
          "internalType": "uint256",
          "name": "tokenId",
          "type": "uint256"
        },
        {
          "internalType": "bytes",
          "name": "data",
          "type": "bytes"
        }
      ],
      "name": "safeTransferFrom",
      "outputs": [],
      "stateMutability": "nonpayable",
      "type": "function"
    },
    {
      "inputs": [
        {
          "internalType": "address",
          "name": "operator",
          "type": "address"
        },
        {
          "internalType": "bool",
          "name": "approved",
          "type": "bool"
        }
      ],
      "name": "setApprovalForAll",
      "outputs": [],
      "stateMutability": "nonpayable",
      "type": "function"
    },
    {
      "inputs": [
        {
          "internalType": "bytes4",
          "name": "interfaceId",
          "type": "bytes4"
        }
      ],
      "name": "supportsInterface",
      "outputs": [
        {
          "internalType": "bool",
          "name": "",
          "type": "bool"
        }
      ],
      "stateMutability": "view",
      "type": "function"
    },
    {
      "inputs": [],
      "name": "symbol",
      "outputs": [
        {
          "internalType": "string",
          "name": "",
          "type": "string"
        }
      ],
      "stateMutability": "view",
      "type": "function"
    },
    {
      "inputs": [
        {
          "internalType": "uint256",
          "name": "tokenId",
          "type": "uint256"
        }
      ],
      "name": "tokenURI",
      "outputs": [
        {
          "internalType": "string",
          "name": "",
          "type": "string"
        }
      ],
      "stateMutability": "view",
      "type": "function"
    },
    {
      "inputs": [
        {
          "internalType": "address",
          "name": "from",
          "type": "address"
        },
        {
          "internalType": "address",
          "name": "to",
          "type": "address"
        },
        {
          "internalType": "uint256",
          "name": "tokenId",
          "type": "uint256"
        }
      ],
      "name": "transferFrom",
      "outputs": [],
      "stateMutability": "nonpayable",
      "type": "function"
    },
    {
      "inputs": [
        {
          "internalType": "address",
          "name": "newOwner",
          "type": "address"
        }
      ],
      "name": "transferOwnership",
      "outputs": [],
      "stateMutability": "nonpayable",
      "type": "function"
    }
  ],
  "bytecode": "0x608060405234801561000f575f5ffd5b50336040518060400160405280601681526020017f43616d7075735661756c74204d656d62657273686970000000000000000000008152506040518060400160405280600381526020016243564d60e81b815250815f908161007191906101ab565b50600161007e82826101ab565b5050506001600160a01b0381166100ae57604051631e4fbdf760e01b81525f600482015260240160405180910390fd5b6100b7816100c2565b506001600755610265565b600680546001600160a01b038381166001600160a01b0319831681179093556040519116919082907f8be0079c531659141344cd1fd0a4f28419497f9722a3daafe3b4186f6b6457e0905f90a35050565b634e487b7160e01b5f52604160045260245ffd5b600181811c9082168061013b57607f821691505b60208210810361015957634e487b7160e01b5f52602260045260245ffd5b50919050565b601f8211156101a657805f5260205f20601f840160051c810160208510156101845750805b601f840160051c820191505b818110156101a3575f8155600101610190565b50505b505050565b81516001600160401b038111156101c4576101c4610113565b6101d8816101d28454610127565b8461015f565b6020601f82116001811461020a575f83156101f35750848201515b5f19600385901b1c1916600184901b1784556101a3565b5f84815260208120601f198516915b828110156102395787850151825560209485019460019092019101610219565b508482101561025657868401515f19600387901b60f8161c191681555b50505050600190811b01905550565b611262806102725f395ff3fe608060405234801561000f575f5ffd5b5060043610610111575f3560e01c80638da5cb5b1161009e578063c87b56dd1161006e578063c87b56dd14610233578063d0def52114610246578063d5743ffe14610259578063e985e9c51461026c578063f2fde38b1461027f575f5ffd5b80638da5cb5b146101f457806395d89b4114610205578063a22cb4651461020d578063b88d4fde14610220575f5ffd5b806323b872dd116100e457806323b872dd1461019257806342842e0e146101a55780636352211e146101b857806370a08231146101cb578063715018a6146101ec575f5ffd5b806301ffc9a71461011557806306fdde031461013d578063081812fc14610152578063095ea7b31461017d575b5f5ffd5b610128610123366004610d65565b610292565b60405190151581526020015b60405180910390f35b6101456102e3565b6040516101349190610db5565b610165610160366004610dc7565b610372565b6040516001600160a01b039091168152602001610134565b61019061018b366004610df9565b610399565b005b6101906101a0366004610e21565b6103a8565b6101906101b3366004610e21565b610436565b6101656101c6366004610dc7565b610455565b6101de6101d9366004610e5b565b61045f565b604051908152602001610134565b6101906104a4565b6006546001600160a01b0316610165565b6101456104b7565b61019061021b366004610e74565b6104c6565b61019061022e366004610ec1565b6104d1565b610145610241366004610dc7565b6104e9565b6101de610254366004610f9e565b6105de565b610190610267366004610dc7565b61066c565b61012861027a36600461101c565b610696565b61019061028d366004610e5b565b6106c3565b5f6001600160e01b031982166380ac58cd60e01b14806102c257506001600160e01b03198216635b5e139f60e01b145b806102dd57506301ffc9a760e01b6001600160e01b03198316145b92915050565b60605f80546102f19061104d565b80601f016020809104026020016040519081016040528092919081815260200182805461031d9061104d565b80156103685780601f1061033f57610100808354040283529160200191610368565b820191905f5260205f20905b81548152906001019060200180831161034b57829003601f168201915b5050505050905090565b5f61037c826106fd565b505f828152600460205260409020546001600160a01b03166102dd565b6103a4828233610735565b5050565b6001600160a01b0382166103d657604051633250574960e11b81525f60048201526024015b60405180910390fd5b5f6103e2838333610742565b9050836001600160a01b0316816001600160a01b031614610430576040516364283d7b60e01b81526001600160a01b03808616600483015260248201849052821660448201526064016103cd565b50505050565b61045083838360405180602001604052805f8152506104d1565b505050565b5f6102dd826106fd565b5f6001600160a01b038216610489576040516322718ad960e21b81525f60048201526024016103cd565b506001600160a01b03165f9081526003602052604090205490565b6104ac610834565b6104b55f610861565b565b6060600180546102f19061104d565b6103a43383836108b2565b6104dc8484846103a8565b6104303385858585610979565b5f818152600260205260409020546060906001600160a01b03166105435760405162461bcd60e51b81526020600482015260116024820152702737b732bc34b9ba32b73a103a37b5b2b760791b60448201526064016103cd565b5f828152600860205260409020805461055b9061104d565b80601f01602080910402602001604051908101604052809291908181526020018280546105879061104d565b80156105d25780601f106105a9576101008083540402835291602001916105d2565b820191905f5260205f20905b8154815290600101906020018083116105b557829003601f168201915b50505050509050919050565b5f6105e7610834565b600780549081905f6105f883611085565b91905055506106078582610aa1565b5f81815260086020526040902061061f8486836110ed565b5080856001600160a01b03167fd35bb95e09c04b219e35047ce7b7b300e3384264ef84a40456943dbc0fc17c14868660405161065c9291906111a7565b60405180910390a3949350505050565b610674610834565b61067d81610b02565b5f81815260086020526040812061069391610d06565b50565b6001600160a01b039182165f90815260056020908152604080832093909416825291909152205460ff1690565b6106cb610834565b6001600160a01b0381166106f457604051631e4fbdf760e01b81525f60048201526024016103cd565b61069381610861565b5f818152600260205260408120546001600160a01b0316806102dd57604051637e27328960e01b8152600481018490526024016103cd565b6104508383836001610b3a565b5f828152600260205260408120546001600160a01b039081169083161561076e5761076e818486610c3e565b6001600160a01b038116156107a8576107895f855f5f610b3a565b6001600160a01b0381165f90815260036020526040902080545f190190555b6001600160a01b038516156107d6576001600160a01b0385165f908152600360205260409020805460010190555b5f8481526002602052604080822080546001600160a01b0319166001600160a01b0389811691821790925591518793918516917fddf252ad1be2c89b69c2b068fc378daa952ba7f163c4a11628f55a4df523b3ef91a4949350505050565b6006546001600160a01b031633146104b55760405163118cdaa760e01b81523360048201526024016103cd565b600680546001600160a01b038381166001600160a01b0319831681179093556040519116919082907f8be0079c531659141344cd1fd0a4f28419497f9722a3daafe3b4186f6b6457e0905f90a35050565b6001600160a01b0383166108db5760405163a9fbf51f60e01b81525f60048201526024016103cd565b6001600160a01b03821661090d57604051630b61174360e31b81526001600160a01b03831660048201526024016103cd565b6001600160a01b038381165f81815260056020908152604080832094871680845294825291829020805460ff191686151590811790915591519182527f17307eab39ab6107e8899845ad3d59bd9653f200f220920489ca2b5937696c31910160405180910390a3505050565b6001600160a01b0383163b15610a9a57604051630a85bd0160e11b81526001600160a01b0384169063150b7a02906109bb9088908890879087906004016111d5565b6020604051808303815f875af19250505080156109f5575060408051601f3d908101601f191682019092526109f291810190611211565b60015b610a5c573d808015610a22576040519150601f19603f3d011682016040523d82523d5f602084013e610a27565b606091505b5080515f03610a5457604051633250574960e11b81526001600160a01b03851660048201526024016103cd565b805160208201fd5b6001600160e01b03198116630a85bd0160e11b14610a9857604051633250574960e11b81526001600160a01b03851660048201526024016103cd565b505b5050505050565b6001600160a01b038216610aca57604051633250574960e11b81525f60048201526024016103cd565b5f610ad683835f610742565b90506001600160a01b03811615610450576040516339e3563760e11b81525f60048201526024016103cd565b5f610b0e5f835f610742565b90506001600160a01b0381166103a457604051637e27328960e01b8152600481018390526024016103cd565b8080610b4e57506001600160a01b03821615155b15610c0f575f610b5d846106fd565b90506001600160a01b03831615801590610b895750826001600160a01b0316816001600160a01b031614155b8015610b9c5750610b9a8184610696565b155b15610bc55760405163a9fbf51f60e01b81526001600160a01b03841660048201526024016103cd565b8115610c0d5783856001600160a01b0316826001600160a01b03167f8c5be1e5ebec7d5bd14f71427d1e84f3dd0314c0f7b2291e5b200ac8c7c3b92560405160405180910390a45b505b50505f90815260046020526040902080546001600160a01b0319166001600160a01b0392909216919091179055565b610c49838383610ca2565b610450576001600160a01b038316610c7757604051637e27328960e01b8152600481018290526024016103cd565b60405163177e802f60e01b81526001600160a01b0383166004820152602481018290526044016103cd565b5f6001600160a01b03831615801590610cfe5750826001600160a01b0316846001600160a01b03161480610cdb5750610cdb8484610696565b80610cfe57505f828152600460205260409020546001600160a01b038481169116145b949350505050565b508054610d129061104d565b5f825580601f10610d21575050565b601f0160209004905f5260205f209081019061069391905b80821115610d4c575f8155600101610d39565b5090565b6001600160e01b031981168114610693575f5ffd5b5f60208284031215610d75575f5ffd5b8135610d8081610d50565b9392505050565b5f81518084528060208401602086015e5f602082860101526020601f19601f83011685010191505092915050565b602081525f610d806020830184610d87565b5f60208284031215610dd7575f5ffd5b5035919050565b80356001600160a01b0381168114610df4575f5ffd5b919050565b5f5f60408385031215610e0a575f5ffd5b610e1383610dde565b946020939093013593505050565b5f5f5f60608486031215610e33575f5ffd5b610e3c84610dde565b9250610e4a60208501610dde565b929592945050506040919091013590565b5f60208284031215610e6b575f5ffd5b610d8082610dde565b5f5f60408385031215610e85575f5ffd5b610e8e83610dde565b915060208301358015158114610ea2575f5ffd5b809150509250929050565b634e487b7160e01b5f52604160045260245ffd5b5f5f5f5f60808587031215610ed4575f5ffd5b610edd85610dde565b9350610eeb60208601610dde565b925060408501359150606085013567ffffffffffffffff811115610f0d575f5ffd5b8501601f81018713610f1d575f5ffd5b803567ffffffffffffffff811115610f3757610f37610ead565b604051601f8201601f19908116603f0116810167ffffffffffffffff81118282101715610f6657610f66610ead565b604052818152828201602001891015610f7d575f5ffd5b816020840160208301375f6020838301015280935050505092959194509250565b5f5f5f60408486031215610fb0575f5ffd5b610fb984610dde565b9250602084013567ffffffffffffffff811115610fd4575f5ffd5b8401601f81018613610fe4575f5ffd5b803567ffffffffffffffff811115610ffa575f5ffd5b86602082840101111561100b575f5ffd5b939660209190910195509293505050565b5f5f6040838503121561102d575f5ffd5b61103683610dde565b915061104460208401610dde565b90509250929050565b600181811c9082168061106157607f821691505b60208210810361107f57634e487b7160e01b5f52602260045260245ffd5b50919050565b5f600182016110a257634e487b7160e01b5f52601160045260245ffd5b5060010190565b601f82111561045057805f5260205f20601f840160051c810160208510156110ce5750805b601f840160051c820191505b81811015610a9a575f81556001016110da565b67ffffffffffffffff83111561110557611105610ead565b61111983611113835461104d565b836110a9565b5f601f84116001811461114a575f85156111335750838201355b5f19600387901b1c1916600186901b178355610a9a565b5f83815260208120601f198716915b828110156111795786850135825560209485019460019092019101611159565b5086821015611195575f1960f88860031b161c19848701351681555b505060018560011b0183555050505050565b60208152816020820152818360408301375f818301604090810191909152601f909201601f19160101919050565b6001600160a01b03858116825284166020820152604081018390526080606082018190525f9061120790830184610d87565b9695505050505050565b5f60208284031215611221575f5ffd5b8151610d8081610d5056fea26469706673582212201abb852b60894e4b5bc25b31eb2d97ceba9e954e103b6ec339d1d716c99953d864736f6c634300081c0033",
  "linkReferences": {},
  "deployedLinkReferences": {},
  "immutableReferences": {},
  "inputSourceName": "project/contracts/CVM_NFT.sol",
  "buildInfoId": "solc-0_8_28-f02346599872c572bd4ce7c869b9bee0e7c1c70c"
}